:020000040800F2
:1000000088060020290200080B0500087304000878
:1000100009050008E3020008D906000800000000F6
:10002000000000000000000000000000D1050008F2
:10003000E5020008000000000D050008D3050008D7
:10004000430200084302000843020008430200087C
:10005000430200084302000843020008430200086C
:10006000430200084302000843020008430200085C
:10007000430200084302000843020008430200084C
:10008000430200084302000843020008430200083C
:10009000430200084302000843020008430200082C
:1000A000430200084302000843020008430200081C
:1000B000430200084302000843020008430200080C
:1000C00043020008430200084302000843020008FC
:1000D00043020008430200084302000843020008EC
:1000E00043020008430200084302000843020008DC
:1000F00043020008430200084302000843020008CC
:1001000043020008430200084302000843020008BB
:1001100043020008430200084302000843020008AB
:10012000430200084302000843020008430200089B
:10013000430200084302000843020008430200088B
:10014000430200084302000843020008430200087B
:10015000430200084302000843020008430200086B
:10016000430200084302000843020008430200085B
:10017000430200084302000843020008430200084B
:10018000430200084302000800F002F800F03CF8C7
:100190000AA090E8000C82448344AAF10107DA45E2
:1001A00001D100F031F8AFF2090EBAE80F0013F0F8
:1001B000010F18BFFB1A43F0010318477405000034
:1001C00094050000103A24BF78C878C1FAD85207C5
:1001D00024BF30C830C144BF04680C6070470000C1
:1001E0000023002400250026103A28BF78C1FBD840
:1001F000520728BF30C148BF0B6070471FB500F0E1
:1002000091FA1FBD10B510BD00F031F81146FFF78F
:10021000F5FF00F062FA00F04FF803B4FFF7F2FFC9
:1002200003BC00F057F80000094880470948004720
:10023000FEE7FEE7FEE7FEE7FEE7FEE7FEE7FEE796
:10024000FEE7FEE704480549054A064B70470000F3
:10025000D5050008890100088800002088060020D4
:10026000880200208802002070477047704775465A
:1002700000F02CF8AE4605006946534620F0070012
:10028000854618B020B5FFF7DDFFBDE820404FF0F0
:1002900000064FF000074FF000084FF0000B21F070
:1002A0000701AC46ACE8C009ACE8C009ACE8C0093D
:1002B000ACE8C0098D46704710B50446AFF3008026
:1002C0002046BDE81040FFF7A8BF00000048704777
:1002D0002800002001491820ABBEFEE726000200DE
:1002E0007047FEE7704700002DE9F04704460D46D1
:1002F00088B0284304BF08B0BDE8F0870020354F20
:100300008046D4F5FA714FF47A794FF4FA5A4FF0E7
:10031000E026A84132D204A800F006F90598B842B8
:1003200030690AD240F00400306105984FF4FA7148
:10033000B0FBF9F04843706109E020F0040030613F
:1003400005984FF4FA71B0FBFAF048437061C6F8B3
:100350001880306940F001003061306910F4803F4E
:10036000FBD0306920F001003061B4F5FA7445F13A
:10037000FF350020D4F5FA71A841CCD3684600F0CF
:10038000D3F80198B842306909D240F004003061D6
:100390000198B0FBF9F0A0FB0401706108E020F0C7
:1003A000040030610198B0FBFAF0A0FB0401706119
:1003B000C6F81880306940F001003061306910F4EF
:1003C000803FFBD0306920F00100306108B0BDE80B
:1003D000F087000000127A002DE9F00100220125CB
:1003E0005FF00306D1F800C005FA02F30CEA030C33
:1003F0009C4533D107684FEA420C06FA0CF4A74338
:1004000007600F79D0F8008007FA0CF747EA080771
:1004100007600F79012F18BF022F14D18768A743F7
:1004200087604F79D0F8088007FA0CF747EA080789
:100430008760476827EA0303436043688F799740E2
:10044000BFB23B434360C368A343C360CB7903FAA5
:100450000CF3D0F80CC043EA0C03C360521C102A02
:10046000C0D3BDE8F0017047002A14BF0183418367
:100470007047FEE72DE9F34F0646214883B0825DC1
:1004800004998A4204BF05B0BDE8F08F81551D482C
:1004900000F10408017800F1080531BB01270024B0
:1004A0000770A14600F1100B4FF0030A5BF824001F
:1004B000012100F02DF838F814008DF804708DF843
:1004C00005A08DF8069000908DF8077055F824006F
:1004D0006946FFF781FF38F8141055F8240001220F
:1004E000FFF7C2FF641C022CE0DB38F8161055F849
:1004F0002600049A05B0BDE8F04FFFF7B5BF000035
:100500000100002000000020FEE770477047000057
:10051000044A0029116814BF084321EA0000106052
:100520007047000030380240254A30B41168254B2E
:1005300011F00C0106D05C10042908BF046002D041
:1005400008291ED0036011680F2303EA11111E4B06
:10055000595CD0F800C02CFA01F14160D2F800C01B
:10056000072404EA9C2C13F80CC021FA0CFCC0F8F8
:1005700008C0126804EA52329A5CD140C16030BCB3
:1005800070471249D1F800C0CCF38055D1F800C0B3
:10059000002D0CF03F0C14BFB4FBFCF3B3FBFCF3D9
:1005A000D1F800C00968CCF3881C03FB0CF3C1F33D
:1005B0000141491C4900B3FBF1F10160C3E70000B0
:1005C000083802400024F4001800002004380240DB
:1005D00070477047374882B0016841F4700101608C
:1005E0003548016841F001010160344900230B6086
:1005F000026822F4102222F08072026000F1040CE2
:100600002F4ACCF80020026822F4802202600A1DE2
:10061000136001930093026842F480320260026822
:1006200002F400320092019A521C0192009A1AB907
:10063000019AB2F5A04FF2D1026812F4003F08BF50
:10064000009331D0012200921E4A136843F0805378
:1006500013601D4A136843F4404313600A680A603C
:100660000A6842F400420A600A6842F4A0520A6032
:10067000164ACCF80020026842F0807202600268DC
:1006800012F0007FFBD0124A40F20570106008683B
:1006900020F003000860086840F002000860086865
:1006A00000F00C000828FAD10A494FF000600860F9
:1006B00002B0704788ED00E0003802400838024080
:1006C00010300024403802400070004008544007B9
:1006D000003C024008ED00E0FEE74FF4FA70002114
:1006E000FFF702FE00210846FFF7C4FE4FF4FA7040
:1006F0000021FFF7F9FD00210120FFF7BBFE4FF4B9
:10070000FA700021FFF7F0FD01210020FFF7B2FE93
:100710004FF4FA700021FFF7E7FD01210846FFF7CB
:10072000A9FEDAE74FF04070E1EE100A70470000D2
:10073000500700080000002028000000C401000845
:10074000780700082800002060060000E00100088B
:1007500000010100000200040014024000140240E5
:10076000200000002000000000000000010203043F
:08077000010203040607080959
:040000050800018965
:00000001FF
